{
  "chainId": 31337,
  "ownerAddress": "0x547289319C3e6aedB179C0b8e8aF0B5ACd062603",
  "startingNonce": 0,
  "gasPrice": "20000000000",
  "gasPriceGwei": 20,
  "transactions": [
    {
      "name": "IdentityRegistry",
      "proxy": "0x8004A818BFB912233c491871b3d84c89A494BD9e",
      "implementation": "0x5fccEB0b1Bc2bcFb0F087211bEeEF094C90C1313",
      "nonce": 0,
      "gasLimit": "188831",
      "gasPrice": "20000000000",
      "requiredFunding": "3776620000000000",
      "requiredFundingEth": "0.003777",
      "signedTransaction": "0xf8ec808504a817c8008302e19f948004a818bfb912233c491871b3d84c89a494bd9e80b8844f1ef2860000000000000000000000005fcceb0b1bc2bcfb0f087211beeef094c90c1313000000000000000000000000000000000000000000000000000000000000004000000000000000000000000000000000000000000000000000000000000000048129fc1c0000000000000000000000000000000000000000000000000000000082f4f6a0aecfcf8811274ce3508e6d86231a1cfb80755a093576b2be856e885b4eba6b3ca04661130d119816dc16a1d4aaf8f2d4d80801e124444f1f52a172e805d62f8ac2"
    },
    {
      "name": "ReputationRegistry",
      "proxy": "0x8004B663056A597Dffe9eCcC1965A193B7388713",
      "implementation": "0xd06799fc288cf569e27a821C2E3c4f50Becd9D75",
      "nonce": 1,
      "gasLimit": "63384",
      "gasPrice": "20000000000",
      "requiredFunding": "1267680000000000",
      "requiredFundingEth": "0.001268",
      "signedTransaction": "0xf9010b018504a817c80082f798948004b663056a597dffe9eccc1965a193b738871380b8a44f1ef286000000000000000000000000d06799fc288cf569e27a821c2e3c4f50becd9d7500000000000000000000000000000000000000000000000000000000000000400000000000000000000000000000000000000000000000000000000000000024c4d66de80000000000000000000000008004a818bfb912233c491871b3d84c89a494bd9e0000000000000000000000000000000000000000000000000000000082f4f6a04f3b8a6fec7b45c1cd03c42a8b1ab44aaf3a2669ef48dc1fe2dbc51dbe868f1aa06daa3a1477d4b2647a3b8770c125fbec8ec1c17ed232c56448814fcb3c88c22d"
    },
    {
      "name": "ValidationRegistry",
      "proxy": "0x8004Cb1BF31DAf7788923b405b754f57acEB4272",
      "implementation": "0xDfE0Bb4612dd184C1415c1B4CBD9510E9Ac049F1",
      "nonce": 2,
      "gasLimit": "63239",
      "gasPrice": "20000000000",
      "requiredFunding": "1264780000000000",
      "requiredFundingEth": "0.001265",
      "signedTransaction": "0xf9010b028504a817c80082f707948004cb1bf31daf7788923b405b754f57aceb427280b8a44f1ef286000000000000000000000000dfe0bb4612dd184c1415c1b4cbd9510e9ac049f100000000000000000000000000000000000000000000000000000000000000400000000000000000000000000000000000000000000000000000000000000024c4d66de80000000000000000000000008004a818bfb912233c491871b3d84c89a494bd9e0000000000000000000000000000000000000000000000000000000082f4f6a0c8c4e882a7bfb5607e8b05c9d6d09052614d37a2162810442336524d9b8b0edaa022b75a80af4b88aecb2a230fe4384c448387a73d00248d10ca44e61b6b67bfc4"
    }
  ],
  "totalFunding": "6309080000000000",
  "totalFundingEth": "0.006309",
  "timestamp": "2026-01-11T07:32:23.462Z"
}