{
  "chainId": 31337,
  "ownerAddress": "0x547289319C3e6aedB179C0b8e8aF0B5ACd062603",
  "startingNonce": 0,
  "gasPrice": "20000000000",
  "gasPriceGwei": 20,
  "transactions": [
    {
      "name": "IdentityRegistry",
      "proxy": "0x8004A818BFB912233c491871b3d84c89A494BD9e",
      "implementation": "0xE6F2bDF376645Fb125048C44664E1A19E5fcaE70",
      "nonce": 0,
      "gasLimit": "48769",
      "gasPrice": "20000000000",
      "requiredFunding": "975380000000000",
      "requiredFundingEth": "0.000975",
      "signedTransaction": "0xf8cb808504a817c80082be81948004a818bfb912233c491871b3d84c89a494bd9e80b8644f1ef286000000000000000000000000e6f2bdf376645fb125048c44664e1a19e5fcae700000000000000000000000000000000000000000000000000000000000000040000000000000000000000000000000000000000000000000000000000000000082f4f6a030b63fd5e6105c6e41a96694d343a2b944a03f7b2bcd9d1ac6c8f603e4c73b0fa04ce2b10d0441e83c080fe9e57cdcdf477a86acbbe3f4e9c12aec7995656ad967"
    },
    {
      "name": "ReputationRegistry",
      "proxy": "0x8004B663056A597Dffe9eCcC1965A193B7388713",
      "implementation": "0x8C17242586a2833b96937c864824Dd63E6aEAc3d",
      "nonce": 1,
      "gasLimit": "48595",
      "gasPrice": "20000000000",
      "requiredFunding": "971900000000000",
      "requiredFundingEth": "0.000972",
      "signedTransaction": "0xf8cb018504a817c80082bdd3948004b663056a597dffe9eccc1965a193b738871380b8644f1ef2860000000000000000000000008c17242586a2833b96937c864824dd63e6aeac3d0000000000000000000000000000000000000000000000000000000000000040000000000000000000000000000000000000000000000000000000000000000082f4f5a038a43a9c0c98f64e1d222167c22170346b1aa2c49da2fea3c4c5f419a45b918aa0626deb862b4279bed2bf1ec4d3f39ce2c88ed18f3cc9fefbcb63ab0e120b7029"
    },
    {
      "name": "ValidationRegistry",
      "proxy": "0x8004Cb1BF31DAf7788923b405b754f57acEB4272",
      "implementation": "0xADf6FbeC4D73e467E2E20106B2f1F741D678194F",
      "nonce": 2,
      "gasLimit": "48566",
      "gasPrice": "20000000000",
      "requiredFunding": "971320000000000",
      "requiredFundingEth": "0.000971",
      "signedTransaction": "0xf8cb028504a817c80082bdb6948004cb1bf31daf7788923b405b754f57aceb427280b8644f1ef286000000000000000000000000adf6fbec4d73e467e2e20106b2f1f741d678194f0000000000000000000000000000000000000000000000000000000000000040000000000000000000000000000000000000000000000000000000000000000082f4f5a039f207d6612eec255601da68dad6839ca5c1cc4455483aad66a3bbca29448caba02eba460269447aa868681265066c2cb124be2d226d8da94d3b2131dffae0b2b3"
    }
  ],
  "totalFunding": "2918600000000000",
  "totalFundingEth": "0.002919",
  "timestamp": "2026-01-05T20:39:19.242Z"
}